:020000040100F9
:10000000A0D10000D808510000200001002000010C
:0800100003000000440700009A
:020000040100F9
:1020000000008400A9220001B52200019D220001E8
:10201000CB3E0001C93E00016D3F00010000000001
:102020000000000000000000000000007522000118
:10203000BF22000100000000C1220001D13E0001CA
:10204000C322000139380600DD370600FD48810053
:10205000C3220001C32200016B4981007149810044
:10206000C3220001C3220001C3220001C3220001D8
:102070001D4A8100254A8100C3220001C3220001BC
:10208000C3220001C322000177498100C32200015D
:10209000C3220001C3220001C3220001C3220001A8
:1020A000C3220001D1370600CD3E0001C32200014A
:1020B000C3220001C3220001C3220001C322000188
:1020C000C3220001C322000100F002F800F0C2F8B0
:1020D0000AA090E8000C82448344AAF10107DA4583
:1020E00001D100F0B7F8AFF2090EBAE80F0013F013
:1020F000010F18BFFB1A43F001031847A4A7000003
:10210000E4A700000A444FF0000C10F8013B13F064
:10211000070408BF10F8014B1D1108BF10F8015B40
:10212000641E05D010F8016B641E01F8016BF9D133
:1021300013F0080F1EBF10F8014BAD1C0C1B09D18A
:102140006D1E58BF01F801CBFAD505E014F8016BFC
:1021500001F8016B6D1EF9D59142D6D3704700008E
:10216000103A24BF78C878C1FAD8520724BF30C8C3
:1021700030C144BF04680C60704700000023002495
:1021800000250026103A28BF78C1FBD8520728BF87
:1021900030C148BF0B6070476E2900F08B847029F6
:1021A00000F02582662909F0FC84652909F0F9848C
:1021B000672909F0F684612909F0F58403681B0A90
:1021C00028BF41F08001692900F09681642900F060
:1021D0009381752900F090816F2900F07885782926
:1021E00000F0F181E92900F01385E42900F0108561
:1021F000F52900F00D85EF2900F07585F82900F02C
:10220000F0810368DB0928BF41F08001632900F0F9
:102210009484732900F09984E32901F04B81F32918
:1022200001F05081002070471FB509F0B5FC00F0A7
:10223000C2FA01F073F904000020002108F012FF37
:10224000401C60600020002108F0F6FEE0601FBD29
:1022500010B510BDDFF80CD0FFF7E6FF01F02DFE42
:1022600001F012FA0000840003B4FFF7F1FF03BC91
:1022700001F054FA1EF0040F14BFEFF3098CEC4682
:102280000FB5604661F416D384460FBCBCF1000F55
:1022900018BFE0475DF804EB7047FEE770466946FB
:1022A00003F034FDFFF7FEFF0648804706488047ED
:1022B00006480047FEE7FEE7FEE7FEE7FEE7FEE72B
:1022C000FEE7FEE71DA70001493F000165910001FF
:1022D00053EA020C00F069802DE9F04B4FF0000644
:1022E000002B1FBFB3FA83F503FA05F424FA05F6B1
:1022F0005E4012BF1643B2FA82F502FA05F4C5F148
:1023000020051EBF22FA05FC44EA0C04203556EADB
:10231000044C4FEA144418BF641C4FF000084FF0FF
:102320000009904271EB030C39D3002919BFB1FAAF
:1023300081F701FA07F6B0FA80F700FA07F6C7F15D
:1023400020071EBF20FA07FC46EA0C062037B6FB22
:10235000F4FCA7EB0507103F07F01F0BCBF120069D
:102360000CFA0BFB2CFA06F644BFB3460026202FCE
:10237000A4BF5E464FF0000B5BEA060C08BF4FF0AF
:10238000010B19EB0B09ABFB027C48EB0608C01BE9
:1023900006FB02CC0BFB03CC71EB0C01C1E70B4637
:1023A000024641464846BDE8F08B13B54FF00000A9
:1023B0004FF00001AFF30080BDE81C407047000003
:1023C0007CB51D4616460C00009001D02044401EEE
:1023D000074B7B442A4669460190304600F083FB58
:1023E00005461CB10020694600F090FB28467CBDE4
:1023F000410700000FB41CB5084B06AA7B44694690
:102400000090059800F06FFB04460020694600F03C
:102410007DFB20461CBC5DF814FB00000D0700008E
:102420000FB47CB50C0009AA009001D02044401ED6
:10243000084B7B4469460190089800F054FB054620
:102440001CB10020694600F061FB28467CBC5DF8A9
:1024500014FB0000E106000070B5044685690068C1
:10246000C10601D5302600E02026C00707D070BD88
:10247000D4E9012130469047206A401C20626D1E3D
:10248000F6D570BD70B5044685690078C00707D1E0
:1024900070BDD4E9012120209047206A401C2062B1
:1024A0006D1EF6D570BD70B50C460546012A05D0E7
:1024B0002878800600D5EA69002302E0012305E0C0
:1024C0005B1C934202D2E05C0028F9D1A869E618AF
:1024D000C01AA861286A184428622846FFF7BCFF82
:1024E00004E0D5E9012114F8010B9047B442F8D378
:1024F0002846FFF7C7FF70BD2DE9F04106460024CE
:1025000010687529314616A510D000F068FA002829
:1025100002DA404213A507E031688A0701D512A507
:1025200002E0490704D511A5012401E000F060FA9A
:1025300000210A2206F1240709E0B0FBF2FCB0FBFF
:10254000F2F302FB1C00303078541846491C002876
:10255000F3D123462A463046BDE8F04100F051BA97
:10256000000000002D0000002B00000020000000F3
:10257000F0B40D460188090502D5214C7C4402E0E7
:102580001F4C7C440E34002100F1240608E002F0C8
:102590000F071209E75D42EA03721B097754491CD1
:1025A00052EA0307F3D102780023120704D5702DF5
:1025B00006D009B1022311342246F0BC00F021BA42
:1025C00001231034F8E770B504460D462146106823
:1025D00000F00EFA024629462046BDE8704000236E
:1025E000C6E7D21D22F00703D3E90023C0E7036842
:1025F000126843F0200303600823C3610023B7E798
:10260000219C00002DE9F05F894604464FF0000A46
:10261000DFF874B1FB44C0F820A02046E168884789
:10262000002874D0252806D0D4E901219047206ADB
:10263000401C2062F1E700265F462046E16888479B
:102640002028054607DB312D05D2781910F8200C1B
:1026500008B10643F1E7B00701D526F00406C4F837
:102660001CA00027C4F818A02A2D09D0284601F084
:10267000BBFC38B304EB8708303DC8F8185019E0AC
:1026800059F8041B204604EB87029161E1688847F2
:10269000012F054618D1E069002820DA26F020062F
:1026A0001DE0D8F8180000EB800005EB4000303842
:1026B000C8F818002046E1688847054601F094FCF8
:1026C0000028EED1012F0AD02E2D08D12046E16836
:1026D00088477F1C0546022F46F02006C4DBA06910
:1026E000002803DA404246F00106A061F00701D05D
:1026F00026F010066C2D0BD0682D09D04C2D39D04A
:102700006A2D35D0742D35D07A2D33D016E038E0CF
:10271000E1682F4620468847B842054609D16C2F0C
:1027200026D04FF48060E16806432046884705467E
:1027300004E06C2F1AD04FF4807006430DB3A5F15E
:102740004100192802D8203546F400664A46294639
:10275000204626604E46FFF71FFD80B101280BD0B2
:10276000F61D26F0070000F1080956E74020E4E7CF
:102770008020D8E70020D6E706F104094DE7284677
:1027800052E7206ABDE8F09FB19B00000B4910B5ED
:10279000A1F17C020A4CC2E93712372106E000EBB6
:1027A000104342F82130074B00FB03400B1EA1F100
:1027B0000101F4DC10BD0120E8E70000F8478100CA
:1027C000E119D666CD0D010040EA010310B59B0763
:1027D0000FD1042A0DD310C808C9121F9C42F8D08B
:1027E00020BA19BA884201D9012010BD4FF0FF303C
:1027F00010BD1AB1D30703D0521C07E0002010BD52
:1028000010F8013B11F8014B1B1B07D110F8013BDD
:1028100011F8014B1B1B01D1921EF1D1184610BDBE
:1028200010B5431C02E010F8011B71B18107FAD109
:102830004FF0013202C88C1A8C4314EAC211F9D04D
:10284000C01A0A0603D0C01E10BDC01A10BD0A046B
:1028500001D0801E10BD0902FCD0401E10BD032A0D
:1028600040F2308010F0030C00F0158011F8013BAD
:10287000BCF1020F624498BF11F801CB00F8013B94
:1028800038BF11F8013BA2F1040298BF00F801CB58
:1028900038BF00F8013B11F0030300F02580083A2F
:1028A000C0F0088051F8043B083A51F804CBA0E886
:1028B0000810F5E7121D5CBF51F8043B40F8043BDB
:1028C000AFF30080D20724BF11F8013B11F801CB10
:1028D00048BF11F8012B24BF00F8013B00F801CBE1
:1028E00048BF00F8012B704710B5203AC0F00B80AC
:1028F000B1E81850203AA0E81850B1E81850A0E804
:102900001850BFF4F5AF5FEA027C24BFB1E818505D
:10291000A0E8185044BF18C918C0BDE810405FEACD
:10292000827C24BF51F8043B40F8043B08BF704749
:10293000D20728BF31F8023B48BF11F8012B28BF4E
:1029400020F8023B48BF00F8012B70474FF000020F
:102950000429C0F0128010F0030C00F01B80CCF1B1
:10296000040CBCF1020F18BF00F8012BA8BF20F81F
:10297000022BA1EB0C0100F00DB85FEAC17C24BF73
:1029800000F8012B00F8012B48BF00F8012B70471D
:102990004FF0000200B5134694469646203922BFF8
:1029A000A0E80C50A0E80C50B1F12001BFF4F7AF43
:1029B000090728BFA0E80C5048BF0CC05DF804EB25
:1029C000890028BF40F8042B08BF704748BF20F893
:1029D000022B11F0804F18BF00F8012B70470968D7
:1029E0004A0501D540B27047C905FCD500B2704711
:1029F00009684A0501D5C0B27047C905FCD580B247
:102A000070472DE9F0470D4699469246044600F17D
:102A100024080168880604D5E06921F010012160CE
:102A200000E00120A84201DD471B00E00027A1696A
:102A30007A1902EB0900081AA0612078C00602D4B6
:102A40002046FFF709FD002608E0D4E901211AF825
:102A500006009047206A401C761C20624E45F4DB3D
:102A60002078C0060AD52046FFF7F6FC06E0D4E938
:102A7000012130209047206A401C2062381EA7F1B7
:102A80000107F4DC07E0D4E9012118F805009047BC
:102A9000206A401C2062281EA5F10105F3DC2046B7
:102AA000FFF7F0FC2078000602D50220BDE8F08791
:102AB0000120FBE711680268006A530501D5087020
:102AC0000AE0D30501D5088006E0130603D5C21736
:102AD000C1E9000200E008600120704701694A1C5A
:102AE00002610878704700B58FB0CDE9013100214F
:102AF000059105497944CDE9031011466846FFF771
:102B000081FD0FB000BD0000E5FFFFFF0A6802F87D
:102B1000010B0A607047D1E900239A4202D2531C8C
:102B20000B601070704710B5436913B1AFF30080AC
:102B300001E0FFF7B8FC012010BD127800F124017C
:102B40000A7000224A700122EDE711684FF0FF324F
:102B5000E9E700002DE9FF5F15468A460446DFF8E5
:102B6000AC80F8440027D8E900103E46CDE90010BB
:102B700010E03AF816106A4602A800F0A7FC411CC3
:102B800007D02178890603D5E269391891420DD81A
:102B90000744761C2078800602D5E069B84205DD3E
:102BA000AE42E6DB3AF816000028E2D1A069C01B6D
:102BB000A0612046FFF750FCD8E90010CDE90010D5
:102BC000002017E03AF818106A4602A800F07EFCD0
:102BD000B0F1FF3F81460BD000250DF1080B05E059
:102BE000D4E901211BF8050090476D1C4D45F7D332
:102BF00008F10100B0428046E4DB206A38442062DC
:102C00002046FFF73FFCBDE8FF9F000076960000DE
:102C10002DE9F0418046D21D22F007020025D2E9BD
:102C20000002F52915A614D0011E72F1000106DA82
:102C30000023D0EB030063EB020211A608E0D8F8F2
:102C400000108B0701D50FA602E0490701D50EA69B
:102C500001251146002408F1240704E000F04EF895
:102C600030323A55641C50EA0102F7D12B46324605
:102C700021464046BDE8F041FFF7C3BE000000001A
:102C80002D0000002B0000002000000030B40021C7
:102C900000F1240408E002F00705D208303542EACA
:102CA0004372DB086554491C52EA0305F3D10468FA
:102CB000002310A2250707D5A40600D421B1C469BA
:102CC00001230DA2641EC46130BCFFF79ABE10B58B
:102CD000044621461068FFF78BFE02462046BDE8F9
:102CE00010400023D2E7D21D22F00701D1E90023D2
:102CF000CCE70000000000003000000030B5B0F16B
:102D00000A024FEA900E71F100034EEA817EB0EBA9
:102D10000E0061EB91014FEA101E4EEA017E10EBAE
:102D20000E0041EB11114FEA102E4EEA016E10EB2E
:102D30000E0041EB11214FEA104E4EEA014E10EB0E
:102D40000E0041EB1141401841F100014FEAD00063
:102D500040EA41704FEAD10110EB80054FEA81044F
:102D600044EA907444EB01046D1944EB0404521BD3
:102D7000A3414FF0000348BF0A3200D530BD401CCC
:102D800041F1000130BD70472DE9FF4F0C461E4652
:102D90004FF0FF378BB0D2E90001DDF860800A9078
:102DA0008A46C1F30A5505B93D46002108464FF051
:102DB0000000BAF1000F00F4400005DA00EB8000DB
:102DC0004FF4400101EA50004FEA9059B9F1010F68
:102DD00000DDB9460A9850EA4A000ED044F6105079
:102DE000A5F2FF3545432F14B8F1000F1ED07542F0
:102DF000291E1EDDC9F100021CE0B8F1010F4FF0E1
:102E0000000001D0302103E0F24305E02154401CD2
:102E1000B042FBDB30460022002121540B99C1F85F
:102E20000880C1E900200FB0BDE8F08FBD1B6D1C0C
:102E3000DEE74A4600DA694206A800F0B3FB06ABBB
:102E400093E8070003AB83E8070050460A9900F0B7
:102E50006CFC8DE80700A0F500501F380090039827
:102E6000002D0ADD42F21F014A460844002303A94F
:102E70000390684600F0D5FE09E0A0F500504A46F0
:102E80001F38002303A90390684600F0DFFE8DE899
:102E900007000004000C03D04FF0FF30410800E0B1
:102EA0001046B8F1000F03D00022009215461EE034
:102EB000751E05D4FFF722FF303262556D1EF9D51D
:102EC000B3460122084302D000227F1C04E0207890
:102ED000302801D100227F1E002A099784D01DE0EE
:102EE000112D07DAFFF70AFF303262556D1C50EAE8
:102EF0000102F5D1084302D00098C8B10EE00021CC
:102F0000681E05E0235C625C63542254401E491C29
:102F10008142F7DBAB46A81B401E0990002004F855
:102F20000B000B98099AC0F80880C0E9002B7AE7DB
:102F300011264FF0000857E72DE9F04F8846044668
:102F4000D21D22F0070191B0D1E90001CDE90A01BB
:102F500001F00DF802460B98C00F01D02D2007E0BC
:102F60002068810701D52B2002E0202101EAC00062
:102F7000032A099001D0072A05DB03464146204673
:102F800000F0D0FA0BE12078800601D5E06900E07E
:102F90000620B8F1650F814606D0B8F1660F18D04B
:102FA000B8F1670F70D131E00020B9F1110F009036
:102FB00001DB112301E009F101030AAA01A90CA810
:102FC000FFF7E2FEDDE90C70002609F101058346FA
:102FD00047E001204B4600904FF000470AAA01A9A4
:102FE0000CA8FFF7D1FEDDE90DB00C995D46002677
:102FF00010B909F101000D18B9EB050003D4C0F1B7
:10300000FF3609F10105A5EB09002BE0B9F1010F2D
:1030100001DA4FF001090020B9F1110F0090484684
:1030200001DD112300E003460AAA01A90CA8FFF75D
:10303000ABFEDDE90C704D46002683462078000784
:103040000AD4AB4500DA5D4601A8012D04DD411923
:1030500011F8011C302907D04F4502DA17F1040F8F
:1030600004DA012082460FE06D1EEEE7002F02DC3D
:10307000ED1B3E4403E0781CA84200DD7D1CB81B1C
:1030800000F1010A4FF000472078000703D4AA4559
:1030900001DB4FF0FF3A0021B7F1004F0DF143087B
:1030A0008DF8431024D002202B23002F01DA7F4219
:1030B0002D230A21021EA0F1010000DC5FB197FB65
:1030C000F1FC97FBF1F201FB1C7C17460CF1300C74
:1030D00008F801CDEEE7A8F1010003702188090589
:1030E00001D5452100E06521A0F1010800F8011C8F
:1030F00009980FA9A1EB0807FF1D00B10120411994
:1031000001EBEA70A1693844081A401EA0612078DA
:10311000C00602D42046FFF79FF9099828B1D4E9E8
:1031200001219047206A401C20622078C00622D5E9
:103130002046FFF791F91EE0002E04DBB34502DDC7
:1031400001A8805D00E03020D4E901219047206A89
:10315000401C2062761CAAF101005FEA000A0AD135
:1031600000F0DCF9C0680168405CD4E901219047B7
:10317000206A401C2062281EA5F10105DCDC07E066
:10318000D4E9012118F8010B9047206A401C206205
:10319000381EA7F10107F3DC2046FFF773F903207F
:1031A00011B041E62DE9F04F04460D46D21D22F044
:1031B000070089B0D0E900974846394600F0D7FEAD
:1031C0000246F80F01D02D2307E02068810701D5C2
:1031D0002B2302E0202101EAC0038DF820300BB13F
:1031E000012000E00020032A824601D0072A04DBE8
:1031F0002946204600F096F93FE12078800601D468
:103200000D2500E0E569C7F30A560D2D49DA0021C6
:103210004FEA175B08464FF00000002F00F4400013
:1032200007DA00EB80004FF4400100EBD07001EAB8
:1032300060008115012901DD4FF0FF3100224FEAC6
:10324000850CBCF1180F06D31346ACF118004FF0F3
:103250008052C24003E04FF4801323FA0CF30CF1C8
:103260000C0CBCF1200F04D3ACF1200C09FA0CF0CB
:1032700001E007FA0CF000294FF0004801DD18B911
:103280000FE00ED140450CD319EB02095F4121B983
:10329000404502D19F4329EA0209BBEB175F00D0EA
:1032A000761C2088000502D57B48784402E07A48E5
:1032B0007844193808AA302302F80A30037C0AF14E
:1032C0000101002E0AF1020A53546A4602DC4FF053
:1032D000300101E04FF031014FF001088DF800108E
:1032E00002D0A6F2FF3603E059EA470100D06B4E48
:1032F000002D02DC2178090704D54FF002082E21A9
:103300008DF80110C44600210BE0C7F303433F01D1
:10331000C35C491C6D1E02F80830052908F101083C
:1033200001DA002DF1DC00210CE000EB1973491CDF
:103330001B786D1E082902F808304FEA091908F1B8
:10334000010801DA002DF0DC21688B0602D516E0B9
:10335000A8F10108E04505DD02EB080313F8013C84
:10336000302BF5D0B8F1000F09DD02EB080313F89C
:10337000013C2E2B03D1090701D4A8F10108002D2F
:1033800005DD3E2102F808106D1E08F10108407CA1
:10339000002E02F8080008F1010804DA2D20764218
:1033A00002F8080002E02B2002F808000A214FF47E
:1033B0007A70864208F101080BDB96FBF0F330339C
:1033C00002F8083096FBF0F308F1010800FB1366E1
:1033D00001E0642E0CDB642096FBF0F3303302F83E
:1033E000083096FBF0F308F1010800FB136601E0DA
:1033F0000A2E06DB96FBF1F0303002F8080008F1E7
:10340000010896FBF1F001FB1060303002F8080073
:10341000A16908F1010808EB050202EB0A00081A8D
:10342000A0612078C00602D42046FFF715F8216A73
:1034300008AE01EB0A00206204E0D4E9012116F88D
:10344000010B9047BAF1010AF7D22078C00602D5E5
:103450002046FFF701F86E4609E016F8010B3E28FA
:103460000FD0D4E901219047206A401C2062B8F1B6
:103470000108F2D22046FFF705F809B00320BDE8A5
:10348000F08F206A2844206203E0D4E90121302033
:1034900090476D1EEBD3F8E7498F000002FCFFFF59
:1034A00010B5436913B1AFF3008001E0FFF752FBA1
:1034B000012010BD128800F1240182840022C28400
:1034C0000122EDE711684FF0FF32E9E770B51646CB
:1034D0000C46054600F01AF8036893F8010101282C
:1034E00006D0FF2C0FD8185D68B101202C7070BD7C
:1034F000D3F807013246214603F207130344284656
:10350000BDE8704018474FF0FF3070BD10B500F0B7
:1035100005F8001D10BD00BF4D7B0000004870473E
:10352000804881002DE9F0411F46044603260168CA
:10353000072A01F4006004DB08B116A505E016A512
:1035400003E008B115A500E015A521F010002060EA
:10355000A069C01EA0610FB1401EA0612046FEF709
:103560007BFF4FB1D4E9012138469047206A401CC7
:103570002062C01C206206E0206AFAE7D4E901213B
:1035800015F8010B9047761EF8D22046FEF77AFF19
:10359000BDE8F0814E414E006E616E00494E46001E
:1035A000696E66002DE9F047814616468AB03548B7
:1035B00078440DC88DE80D0032487844801C03AC77
:1035C0000DC884E80D0041F69B300844372190FB7C
:1035D000F1F290FBF1F5A5F1800501FB12041B3C13
:1035E00002D56442012000E00020DFF898A0804668
:1035F0000027FA44AAF1BE0A0EE0E0070AD03246DC
:10360000684607EB470101230AEB810100F01EFB2E
:103610008DE8070064107F1C002CEED1194F7F4409
:10362000AE3F19E0E80715D007EB04100DF1180ABA
:1036300090E80E008AE80E00C068F04201D19819A7
:1036400008903246012306A903A800F0FFFA03AB55
:1036500083E807006D10641C002DE3D14FF00103D7
:1036600032466946B8F1000F03A802D000F0D9FA3B
:1036700001E000F0EBFAC9E90001C9F808200AB03E
:10368000BDE8F087D48C000010B50446AFF300808D
:103690002046BDE81040FEF7E7BD00004FF0013CBA
:1036A00050F8042B51F8043B9A4221D1A2EB0C03B1
:1036B000934313EACC1317D150F8042B51F8043B71
:1036C0009A4215D1A2EB0C03934313EACC130BD10E
:1036D00050F8042B51F8043B9A4209D1A2EB0C0399
:1036E000934313EACC13DBD04FF00000704700BFC8
:1036F000D01A01BAB1FA81F101F0180122FA01F0F1
:10370000CB40C1F12001DBB2C0B2C01A2CFA01F3E8
:10371000D11A914311EAC311E6D17047014918202B
:10372000ABBEFEE72600020070475FEA400C08BF10
:1037300091F0000F4FEA8C234FEAC12243EA515126
:103740004FEA1C5018BF00F5F0404FEA300018BF98
:1037500041F000415FEA6C5C00F02980BCF1FF3F62
:1037600008BF40F080407047130C06BF12044FF0B2
:10377000100C4FF0000C130E04BF12020CF1080CD9
:10378000130F04BF12010CF1040C930F04BF92003D
:103790000CF1020CD30F04BF52000CF1010C1146C6
:1037A0004FF00002A0F11F00A0EB0C00704711F0D9
:1037B000004F08BF704731F000413FF4D5AF0B0C0C
:1037C00006BF09044FF0100C4FF0000C0B0E04BFA5
:1037D00009020CF1080C0B0F04BF09010CF1040CD9
:1037E0008B0F04BF89000CF1020CCB0F04BF490002
:1037F0000CF1010CCCF12003A0EB0C0022FA03F336
:1038000002FA0CF241EA030100F10100704720F0D6
:103810007F4C80EA030023F07F47ACEB070303F5FE
:103820007C5300F0004003F1FF032DE980494FEA8B
:10383000154B09B44FEA144325EA0B4E24EA03481A
:103840000FF2042606EB132749083E785FEA32029E
:1038500003FB0667C7F5000707FB06F64FEA543778
:103860004FEAD64606F1020607FB066CCCF1005C77
:103870004FEA1C472CEA074C07FB06F40CFB06F545
:1038800004EB15464FEA961634BF00204FF0004077
:103890004FEAD13706FB07FC4FEA1C4C0CFB0BF739
:1038A000D21B03FB0CF761EB07010CFB0EF7B0EB2F
:1038B000074072EB17420CFB08F734BFA2EB07423C
:1038C000B2EB074261EB17414FEA0C444FEA910714
:1038D00006FB07FC4FEA1C4C0CFB0BF7B0EBC74098
:1038E00072EB573203FB0CF734BFA2EBC742B2EBCB
:1038F000C74261EB57310CFB0EF7B0EBC70072EB20
:1039000057720CFB08F734BFA2EBC702B2EBC70239
:1039100061EB5771039F4FEA816141EA921104EB19
:10392000CC044FEAD1374FEA826206FB07FC42EA39
:1039300090124FEA80604FEA1C4C0CFB0BF7D21B35
:1039400003FB0CF761EB07010CFB0EF7B0EB074034
:1039500072EB17420CFB08F734BFA2EB0742B2EB45
:10396000074261EB17414FEA8C554FEA910704EB90
:103970009C2406FB07FC4FEA1C4C0CFB0BF7B0EB3E
:10398000C74072EB573203FB0CF734BFA2EBC742C0
:10399000B2EBC74261EB57310CFB0EF7B0EBC7003F
:1039A00072EB57720CFB08F734BFA2EBC702B2EB05
:1039B000C70261EB577115EB4C254FEA816141EA73
:1039C00092114FEA82624FEAD13742EA901206FB27
:1039D00007FC44F100044FEA80604FEA1C4C0CFBEA
:1039E0000BF7D21B03FB0CF761EB07010CFB0EF787
:1039F000B0EB074072EB17420CFB08F734BFA2EBA9
:103A00000742B2EB074261EB174115EB1C154FEA79
:103A1000813141EA92414FEA823242EA90424FEAD2
:103A200080304FEA0C7644F1000448EA03434EEA42
:103A30000B484FF0000EB2EB080C71EB030724BFEC
:103A4000624639464EEB0E0E4FF0000B0018524105
:103A500049414BEB0B0BB2EB080C71EB03077BF10D
:103A6000000B24BF624639464EEB0E0E4FF0000BA2
:103A70000018524149414BEB0B0BB2EB080C71EBB8
:103A800003077BF1000B24BF624639464EEB0E0E56
:103A900051EA020718BF46F0010616EB0E7655F103
:103AA000000254F1000103D5BDE88901BDE800889A
:103AB000BDE88901BDE80048B619524141EB01015A
:103AC000A3F10103704780807F7E7D7C7B7A7978CB
:103AD000777676757473727171706F6E6E6D6C6CD3
:103AE0006B6A6A6968686766666564646363626175
:103AF0006160605F5F5E5E5D5D5C5C5B5B5A5A59F6
:103B00005958585757565655555554545353525261
:103B10005251515050504F4F4F4E4E4D4D4D4C4CB9
:103B20004C4B4B4B4A4A4A49494948484847474702
:103B3000474646464545454444444443434343423F
:103B4000424242414141002B9C4630D477002BD069
:103B50001CB54FEA370703B44FF010004FF01001C7
:103B6000BAF1000F06D0BCF1000FDCBF40F0080036
:103B700040F008014FF000000FBCBDE810400BF111
:103B8000010BBBF1010F08BF5FEA170722BF12F15B
:103B9000010211F101014FF0004143F1000300F077
:103BA000004043EA00007047F9D35708D0E746EADF
:103BB000064613F1400F4FEA16461FDD13F1200FA2
:103BC000DFBF16430A46002120335B42BED0C3F15B
:103BD000200746EA064602FA07F74FEA164646EA83
:103BE0000706C3F1200722FA03F201FA07F721FAC8
:103BF00003F14FF0000342EA0702A7E746EA020694
:103C000046EA06464FEA164646EA0106BCBF46EAC1
:103C10000646360C4FF000034FF000024FF0000153
:103C200094E72DE9804C9A46934670B491E83800A9
:103C300007C831EA400C48BF34EA430C03D5FFF70C
:103C4000E6FDFFF780FFF0BCBDE8008C2DE9804C5D
:103C50009A46934670B491E8380007C810F0804F38
:103C600008BF13F0804F03D100F005F8FFF76BFF9A
:103C7000F0BCBDE8008C20F07F4780EA030023F011
:103C80007F4C07EB0C03A3F57C5300F00040A3F13D
:103C9000FE0392F0000F00F0B38095F0000F00F0EB
:103CA00077802DE901494FEA11404FEA144621EA95
:103CB000004800FB06FC24EA064708FB06F607FB63
:103CC00008F800FB07F718EB06484CEB164C4FEAD8
:103CD000124B18EB07484FEA15464CEB174022EA07
:103CE0000B4E0BFB06FC25EA06470EFB06F607FB10
:103CF0000EFE0BFB07F71EEB064E4CEB164C4FF07F
:103D000000061EEB074E4CEB174B18EB0B0840F16F
:103D1000000018EB0E0B58EB000840F100008F1A62
:103D20004FF000013CBFC943661B14BFB5EB040C48
:103D300000213CBFC943F61B4FEA17444EEA8E0EE2
:103D400027EA04454FEA1C4704FB07622CEA074CAC
:103D500005FB07F70CFB05F604FB0CFC16EB07460E
:103D600042EB174216EB0C4642EB1C421BEB0606DD
:103D700058EB0202414146EA9E0601D5BDE80189A1
:103D8000B619524141EB0101A3F10103BDE80189DC
:103D90004FEA14454FEA114724EA054621EA074C49
:103DA00005FB07F406FB07F70CFB06F105FB0CFC13
:103DB00011EB074144EB17444FEA124711EB0C415A
:103DC00044EB1C4422EA074C05FB07F206FB07F70D
:103DD0000CFB06F605FB0CFC16EB074642EB174204
:103DE00016EB0C4642EB1C456A1854F1000148BF23
:103DF0007047B619524141EB0101A3F1010370472D
:103E000095F0000F37D04FEA11424FEA144721EAEC
:103E1000024624EA074C02FB07F106FB07F70CFBFE
:103E200006F402FB0CFC14EB074441EB17414FEA8C
:103E3000154714EB0C4441EB1C4125EA074C02FBEF
:103E400007F506FB07F70CFB06F602FB0CFC16EB6E
:103E5000074645EB174516EB0C4645EB1C4212197D
:103E600051F1000148BF7047B619524141EB0101C1
:103E7000A3F1010370474FEA14454FEA114724EAC2
:103E8000054621EA074C05FB07F106FB07F70CFB8B
:103E900006F24FF0000605FB0CFC12EB074241EB6B
:103EA000174112EB0C4251EB1C4148BF704792186E
:103EB00041EB0101A3F10103704710B506F024FDA9
:103EC000BDE8104005F03EB9FEE7FEE71AF40491A4
:103ED000704700000249096801F00701017070474E
:103EE00004C500A030B4062821D212490A6802F0A5
:103EF0000702824212D00A680F4B1A400F4C22432D
:103F00000A6000BF00BF00BF00BF0A681A400C4B28
:103F1000024333F8203042EA83420A6008491839E4
:103F200051F820000749086030BC75F4639030BC3C
:103F30007047000004C500A0F8FFE3FF050008007B
:103F4000B4BC0001204080000648016841F47001C3
:103F500001600548006800F48070002801D106F077
:103F600097BB704788ED00E078C500A0FEE703B47A
:103F700001984100009850EAC12018BF04204A0D62
:103F800018BF40F0010040F2FF72B2EB515F08BF72
:103F900040F00200012808BF052002B07047002849
:103FA00004DB00F1E02090F80004704700F00F00FF
:103FB00000F1E02090F8140D7047002804DB00F1B8
:103FC000E02090F80004704700F00F0000F1E020BE
:103FD00090F8140D7047000002480068C0F30220FA
:103FE000704700000CED00E030380A2801D20120B3
:103FF00070470020704700002DE9F05F06468846B4
:1040000093464FEA5B04A1464546DFF858A1564F58
:10401000D7F8A40220F02000C7F8A402D7F8A00225
:1040200020F02000C7F8A0024E4A383A106820F06D
:10403000804010604D4810603F20D7F8001160F3B9
:104040000501C7F80011106820F4601040EAC6406E
:104050001060106820F4E02040EA06401060052E51
:1040600003D1106840F400401060062E03D11068A0
:1040700040F480401060106840F4005010601068F8
:1040800020F060501060106820F00F0040F0030036
:104090001060DAF8000020F0E04040F08040CAF8FC
:1040A0000000106840F08040106000E03868D7F8E9
:1040B0000401C0F300200028F8D1DAF8000040F035
:1040C0000040CAF8000037E000204FF47A731EE089
:1040D00098421BD9106820F080401060106840F0B2
:1040E00000401060106820F000401060DAF8000016
:1040F00020F00040CAF800001D48C169491CC16198
:104100004C464546052077F47AD581E7401CD7F820
:104110000411C1F300210029DAD0D7F8040100F01E
:104120007F01A14200D92146002002E03B6808C57A
:10413000401C8842FAD3641A002CC5D15FEACB70C8
:1041400007D0D7F80401C0F300200028F9D0386860
:104150002880DAF8000020F00040CAF80000BDE82E
:10416000F09F000040C500A000E000A00A0708077B
:10417000604280000449896B084004490A78104372
:1041800000220A7070470000002001A05D428000FC
:104190002DE9F04104460D461C4F1D4E00221346EA
:1041A0002046294607F0F8F91CD83068C0F34120B2
:1041B00001280ED0386B401C38631649386A084411
:1041C0001549884207D2306820F4C06040F480600E
:1041D0003060BDE8F081306820F4C06040F40070C9
:1041E0003060F6E700220D4B2046294607F00EFB13
:1041F000EFD8306810F4C06FEBD0F86A401CF8625A
:10420000306820F4C0603060E3E700006042800066
:104210000CC500A0666626C033333300000024407E
:10422000014877F4299300007040800006460F464D
:10423000154672B63846FEF7F3FA402801D94020F9
:1042400002E03846FEF7ECFA80463046FEF7E8FA20
:10425000402801D9402002E03046FEF7E1FA04464A
:104260009C211048FEF794FB424639460D48FEF764
:10427000F6FA0C48224631465C30FEF7F0FA09485F
:104280004FF0AA31016445644FF0BB3181644FF0B7
:10429000CC3101654FF0DD318165002000F004F87C
:1042A000FEE70000E04C800030B5ADF20C4D044656
:1042B0004FF4806103A8FEF76BFB184D202085F8B2
:1042C0003F0085F89B003CB12846012C436DC26C31
:1042D00009D0022C0CD00FE0104A11A15C3203A8C7
:1042E000FEF788F808E011A103A8FEF783F803E0C1
:1042F00016A103A8FEF77EF803A90BA2686CCDE90E
:104300000121009018A3054A18A1002000F05AFBD3
:1043100000F022FB0DF20C4D30BD0000E04C80009F
:104320005B4552524F525D20257300005B5741524E
:104330004E494E475D20506172616D303A25642CC4
:10434000506172616D313A25640000005B5041524A
:10435000414D5D20506172616D303A25642C506191
:1043600072616D313A256400000000006170705F79
:104370006173736572742E630000000006460F4679
:1043800090461D4672B64046FEF74AFA402801D9CB
:10439000402002E04046FEF743FA04469C210D48C7
:1043A000FEF7F6FA224641460A48FEF758FA09484F
:1043B0004FF05531016445644FF066318164C66445
:1043C0004FF0773101654765C94381650220FFF7EA
:1043D0006BFFFEE7E04C80002DE9F04106460F46FA
:1043E00090461D464046FEF71BFA402801D9402062
:1043F00002E04046FEF714FA04469C210D48FEF701
:10440000C7FA224641460B48FEF729FA09484FF001
:1044100011310164456449008164C6644FF0333151
:10442000016547654FF044318165BDE8F0410120E9
:10443000FFF73ABFE04C80007047000010B586B02F
:1044400006F05EFC0949002062F418D00446002CF6
:1044500009D01422064901A8FEF746FAADF8084033
:1044600001A800F08FF806B010BD00005042800097
:10447000B0BF0001082808DA00EB4001044800EB57
:104480004110017809B1001D7047002070470000FD
:10449000FC4380002DE9F047054688460024671E4E
:1044A0003E460121002D5ED0EFF31082012080F303
:1044B0001088DFF8BC90012304EB440009EB4010A6
:1044C00090F800C0BCF1000F05D090F804C095F83A
:1044D00000A0D4450DD104EB440609EB461696F82E
:1044E0002D60022E02D02646037006E03846BDE855
:1044F000F087641CE4B2082CDED352B1012080F3B3
:104500001088082C2FD2DFF86CA09AF8000020B198
:104510000BE0002080F31088F3E78AF800300321D5
:10452000154805F0BFFBAAF8020004EB440109EBB3
:1045300041142878207104F108002422291DFEF777
:10454000D3F90E4860630E48E06300202064C4F88D
:104550005C80032017F460D6032017F47BD6201D5F
:1045600002F0C6FA014601B13E463046BFE7000000
:10457000FC43800060408000CCBC0001C95E0001AB
:10458000495E00013EB504464FF480611A48FEF7CB
:10459000DDF9207810B1012819D01DE0002117485D
:1045A000A28830F831309A4207D100EBC10014A143
:1045B00043681148FDF71EFF0EE02B2902D0491C6D
:1045C000C9B2EEE714A10C48FDF714FF04E01DA1E9
:1045D00009486268FDF70EFF074921A22069CDE96D
:1045E00001210090D4E902231EA1002000F0EAF985
:1045F000BDE83E4000F0B0B97C4D80007C408000BA
:104600004572726F7220636F646520307825303494
:10461000583A2025730000004572726F7220636F54
:104620006465203078253034583A204E6F20666F0C
:10463000756E6420696E666F726D6174696F6E2E3F
:104640000000000028257329206973206E6F7420F4
:1046500065737461626C69736865642E00000000A4
:10466000257300006170705F6572726F722E630057
:104670000EB500290AD006A07122CDE900200291D2
:104680000C4B0DA217A1022000F09CF90EBD0000FA
:10469000416476657274696E6720737461727465C3
:1046A00064206661696C6564283058253032582969
:1046B0002E000000C0BE00012E2E5C5372635C759C
:1046C0007365725F63616C6C6261636B5C7573656B
:1046D000725F6761705F63616C6C6261636B2E63B4
:1046E000000000004E4F5F544147000070B588B095
:1046F00006461446A17AE27A237B657BCDE9045312
:10470000CDE90621A07BE17B09A28423CDE900321B
:10471000CDE90210144B15A21FA1022000F052F99E
:1047200008B021463046BDE87040FFF785BE000066
:10473000436F6E6E65637465642077697468207476
:104740006865207065657220253032583A25303210
:10475000583A253032583A253032583A25303258B6
:104760003A253032582E0000D5BE00012E2E5C5363
:1047700072635C757365725F63616C6C6261636BBD
:104780005C757365725F6761705F63616C6C6261B9
:10479000636B2E63000000004E4F5F5441470000E2
:1047A000012162F4019200003EB50546144609A1BC
:1047B000CDE901149C2200920C4B0DA217A10220FE
:1047C00000F000F903B021462846BDE83040FFF76D
:1047D00035BE0000446973636F6E6E656374656413
:1047E0002028307825303258292E0000E8BE0001FC
:1047F0002E2E5C5372635C757365725F63616C6CC3
:104800006261636B5C757365725F6761705F636142
:104810006C6C6261636B2E63000000004E4F5F544E
:1048200041470000104606F0E3BB000010B58EB013
:104830000C46002C07D040B101282BD0022841D0D3
:1048400006200EB010BD0520FBE7207907281FD0F9
:10485000304951F820000B90A1F12400617950F803
:1048600021000C90A0790D9020680104090C05D05E
:1048700080B20A900AA9284802F0A6F92068010C23
:1048800045D0000C0A900AA9244802F09DF93EE0A8
:104890000720D6E72079072812D01E49203151F889
:1048A00020000790A1F13800617950F821000890AC
:1048B000A07909902078069006A802F0D1F826E0A9
:1048C0000720BEE72079C11E032901D80720B8E7D9
:1048D000072809D00F49403151F820000290207973
:1048E000072803D0012002E00120F7E70020039011
:1048F000084861790C3850F821000490A07905909F
:10490000207800F01F00019001A817F43DD400208A
:1049100097E70000FCBC0001000001A0001001A00E
:1049200000B587B003208DF800001D208DF816001B
:1049300001208DF817008DF818008DF81900044A31
:104940000449684600F010F8FFF76AFC07B000BDA4
:104950003D910001ADAF00010248006A002800D07F
:10496000004770477C52800070B50D461646002DFA
:104970000CD00D4C60B10178032913D80121A17628
:1049800001461A222046FDF76AFF07E0002070BDAD
:104990000020A0761A210448FDF7FAFFE56126629F
:1049A000012070BD002070BD7C528000044A10447C
:1049B000807D084201D00120704700207047000030
:1049C0007C5280002DE9FE4F074693469A4600240C
:1049D000A046CDF80480CDF808805B4D2878B84219
:1049E00002D2A87E00287DD10DF13809CDF80090C3
:1049F000EFF311860220FFF7E0FA01465348006802
:104A0000C0F30220401C012282408818C0B280F30B
:104A1000118801213846FFF7C9FF38B14C484D498C
:104A200050F82720204600F0A7F804461C213846FD
:104A3000FFF7BCFF00285ED047A24649204600F0A1
:104A40009BF8204484B204213846FFF7AFFFF8B149
:104A50005A464049204600F08FF8204484B208218D
:104A60003846FFF7A3FF38B13CA23A49204600F090
:104A700083F8204484B20BE010213846FFF796FFFC
:104A800030B137A23349204600F076F8204484B292
:104A900008213846FFF78AFF90B152462D4920463B
:104AA00000F06AF8204484B210213846FFF77EFFF8
:104AB00030B12CA22749204600F05EF8204484B291
:104AC00010213846FFF772FF70B128A2052101A816
:104AD0000C9BFDF7A5FC01AA1E49204600F04CF8EE
:104AE000204400E02DE084B221A21A49204600F0C3
:104AF00043F8204484B21748C4F5807120444B46E3
:104B00000D9AFDF75DFCCDF800804FF48071002810
:104B100004DB2044884201DC87B200E00F46B81C69
:104B2000884200D9FE2713A20A49384600F024F82B
:104B3000384481B2EA690AB106489047F0B280F37E
:104B40001188BDE8FE8F00007C5280000CED00E073
:104B5000D44180007C51800028000000200000002B
:104B60003A000000204C696E653A0000256C640034
:104B7000292000000D0A000030B50546002000295C
:104B80000CD0002A0AD006E02B18FF2B06D8CC54F4
:104B9000521C401C80B21478002CF5D130BD0000AE
:104BA00010B5074A06214CF2010004F029FB06F07B
:104BB00089F9FFF7B5FEBDE81040002074F452906B
:104BC00008BF000110B50B4C47202070607800280A
:104BD0000ED14FF0E0200069C00701D102F002F8C9
:104BE00001206070BDE810400321034805F05AB869
:104BF00010BD0000684080007CBD00012DE9F0413F
:104C0000064688461746002F24D0EFF31184022071
:104C1000FFF7C5F90546FFF7DFF9401C0121814088
:104C20006818C0B280F3118800F062F80546FF2DC5
:104C300012D03A464146284600F070F80A4905EB82
:104C4000850001EB80003060E0B280F31188002025
:104C5000BDE8F0810120FBE700203060E0B280F386
:104C600011880B20F4E700003C4B80002DE9F04157
:104C700006463468002C2CD0EFF311870220FFF792
:104C80008EF90546FFF7A8F9401C012202FA00F14F
:104C90006818C0B280F311880025656062702570C5
:104CA0003560124E7068A0421BD10121032001F033
:104CB000A5FF01F0B7FC78B18168F268891AB1608C
:104CC0007060084677F4C8D10146012001F096FFD4
:104CD00007E00120BDE8F08135707560012073F4B4
:104CE000CDD7F8B280F311880020F3E7CC4C8000D8
:104CF0000020094900EB800211F822202AB1401C53
:104D0000C0B21428F6D3FF20704700EB80030122C5
:104D100001F82320704700003C4B800000EB80032B
:104D2000034800EB830002618170002141707047ED
:104D30003C4B80002DE9F84F044616464FF47A703C
:104D400001FB00F500270097002C59D0002959D00D
:104D5000EFF311880220FFF722F98146FFF73CF9B3
:104D6000421C012000FA02F14944C9B281F31188C2
:104D7000E66067702F4E3178F1B30121032001F016
:104D80003DFF69464FF0004019F4DAD077F442D085
:104D900000EE100A9FED281AF8EE400A9DED000A79
:104DA000B8EE400A20EE010A80EE201ABCEEC10ADD
:104DB00010EE100AB168091AF2681144F160A842B5
:104DC00001D97460B56065604819A060706880683A
:104DD000401AB060002800DAB760B06877F43CD1C0
:104DE0000146012001F00AFF002073F447D708F0C4
:104DF000FF0080F3118800E006E00020BDE8F88F96
:104E00000120FBE70120F9E74FF0E02A4FF080692D
:104E1000CAF880927460B560F76030706560A56014
:104E2000284677F419D10146012001F0E7FECAF8BF
:104E30000091D9E7CC4C800000247449F0B595B0BE
:104E4000044694F835008DF82C000F270C970A20A3
:104E50000D904FF480100E9000250F9500131090C8
:104E6000119512951395149500210BA8FFF712FBCD
:104E700021782C4EC1EB011101EB410106EB8101C0
:104E8000A1F89800002802DA042015B0F0BDFFF761
:104E9000F1FA2178C1EB011101EB410106EB81012F
:104EA00008632178C1EB011101EB410106EB81019F
:104EB000091DC16294F836008DF804000B200290A1
:104EC00003974FF400100490C012059006950795C3
:104ED00008950995A0200A90002101A8FFF7DAFAA9
:104EE0002178C1EB011101EB410106EB8101A1F831
:104EF0009A00002801DA0420C7E7FFF7BBFA2178FF
:104F0000C1EB011101EB410106EB810148632178FE
:104F1000C1EB011101EB410106EB8101091DC162E9
:104F20000020B2E7544980007CB50224294B026876
:104F30009A4201D1002403E0274B9A4200D1012478
:104F40008DF80010254D79B101291AD0022931D0F0
:104F5000032908D1C4EB041000EB400005EB8000EE
:104F6000002180F8B0107CBDC06B0190C4EB041030
:104F700000EB400055F820100029F4D0684688471F
:104F80007CBD018C408C081AADF80400204600F06E
:104F900077F9C4EB041000EB400005EB800191F8B9
:104FA000B0100029ECD155F820100029E8D068464F
:104FB00088477CBD018D408D081AADF80400C4EB14
:104FC000041000EB400055F820100029F1D068468D
:104FD00088477CBD00C600A000C700A054498000DF
:104FE000F8B5C0EB001101EB4102474901EB820427
:104FF000271D02287DD294F89C0000287FD0FFF75F
:10500000E1FD94F89C00012879D184F8B10094F86E
:105010006400012856D00025EFF31081012080F3B1
:1050200010883868426822F08202426001B3012091
:1050300080F310886068C16FC1F380010029FAD045
:1050400094F86400C0B1314E6D1C201D1CF4A4D234
:10505000102806D0A0683168B1FBF0F0B5EBC01F96
:10506000F2D904F1A006304605F032F885B222E00C
:10507000002080F31088DDE7A68CE58C201D1CF451
:1050800051D1234841F288333044411B201D2A4628
:105090001CF495D4E5E730460122694605F022F874
:1050A0006068C16FC1F340010029FAD09DF800107B
:1050B00001606D1EADB2002DEDD1304605F008F84F
:1050C0000028D0D16068C16FC1F380010029FAD0F7
:1050D00094F8640001280FD0EFF31081012080F3D1
:1050E00010883868426842F08202426041B1012073
:1050F00000E004E080F31088002084F8B100F8BDDF
:10510000002080F31088F7E7544980002040800099
:10511000BC4A80002DE9F04389B004460F4615468D
:105120002678002C05D0022E05D3082009B0BDE852
:10513000F0830520FAE794F83400012800D09DB1EF
:10514000FFF740FD242204F110016846FDF7CCFB77
:10515000211DA06C0EC905F063FE0028E6D194F86D
:105160003400022802D009E00420DFE70EB1082055
:10517000DCE72046FFF762FE0028D7D194F8340020
:10518000DFF8A090012810D0C6EB061000EB40001D
:1051900009EB800006CDA03004F084FF224DA85713
:1051A00017F43AD0A85717F455D0C6EB061000EB09
:1051B000400809EB880514F8341F05F8641FA0782F
:1051C000A8706078343C6870643D05F16800302256
:1051D000211DFDF789FB49F8287005F10800182208
:1051E00004F13801FDF780FB0F48001D50F8260040
:1051F0006860281D01F060FD281D01F06DFD0B4C5D
:105200000126207850B9267007480321143004F095
:1052100049FD6080002801DA042087E785F89C605A
:10522000002083E7544980005CBD00016440800099
:1052300010B503460020022B13D291B18AB1C3EB03
:10524000031303EB43040D4B03EB840393F89C40DF
:105250003CB193F8644034B1012C0BD0022C09D13D
:1052600005E0042010BD181D1CF41ED302E0181D1B
:105270001CF49CD20028F5D110BD000054498000D8
:1052800070B5C0EB001000EB4001194800EB810441
:1052900004F1A005284604F01BFF82B2164642B175
:1052A000802A0AD328468022124904F01BFF802658
:1052B00007E0002084F8B00070BD28460D4904F0D6
:1052C00011FF94F8640010B102280FD107E0201DEF
:1052D000324608491CF4F4D30028EDD106E0201D25
:1052E000324604491CF4A6D30028E5D1002070BD45
:1052F00054498000BC4A800070B50546022D13D287
:1053000091B18AB1C5EB051000EB4003124800EBE8
:10531000830494F89C0038B104F1A00004F040FF2D
:1053200094F8B00010B114E0042070BD94F8B100FE
:1053300078B994F89C0001280BD16068D0F89800E7
:1053400038B1012084F8B0002846FFF799FF002803
:10535000EBD1002070BD0000544980002DE9F041E0
:1053600006460C46174604F10805204670F424D280
:105370001B4922184B689A4202DD0320BDE8F081E8
:10538000184A194B096812681B68D21A511A091F6A
:10539000284488421CD94FF4004514A22946002015
:1053A00007F4FCD400F092FB30B119A2294600208A
:1053B00007F4F4D40820E1E71DA22946002007F4F1
:1053C000EDD43A4621463046BDE8F04177F43A92B2
:1053D0003A4621463046BDE8F04177F4339200006A
:1053E000D8328000D0238000CC238000523A353A56
:1053F0004E5644532061726561206973206265696D
:105400006E6720636F6D7061637465642E0D0A00B2
:10541000523A353A436F6D70616374696E67204E1E
:10542000564453206661696C65640D0A00000000F3
:10543000523A353A436F6D70616374696E67204EFE
:10544000564453207375636365737366756C0D0AF8
:10545000000000002DE9F04105460C46FF26217AA8
:105460001E2905D022480279521E52B200683AE045
:1054700004F10801284611F4CDF4064635E010F891
:1054800032308B422DD11B4E56F82500406F30B381
:1054900000273B4618A24021002007F47FD40620B5
:1054A00000EB05202AF466D7C00605D5002717A211
:1054B0004021002007F472D421460C3956F825000B
:1054C000743011F4A9F40020A08001266FB115A258
:1054D000402107F463D4284611F4A0F405E0012725
:1054E000D7E7521E52B2002AC9DA3046BDE8F08131
:1054F0007C058000C40E8000523A333A65786563BB
:105500007574653D307825780A000000523A333AC8
:10551000636F6E6E656374206E6F742063666D0AD0
:1055200000000000523A333A737461727420657857
:1055300065637574650A00000348024901600D2126
:105540004160704720C100017C0580002DE9FF5FAC
:1055500081460F460024A246CDF808A0CDF80CA045
:10556000584850F82900603011F45AF480463D1F25
:1055700079882888544BCDE9001054A2402100209E
:1055800007F40CD42888E8BB48460FF447D5401EE2
:105590002880002611E007EB460002AB828800213C
:1055A000484611F43FF4C4B2CDF808A0CDF80CA0E1
:1055B0000CB1B0463BE0761CB6B27888B042EAD86F
:1055C00035E007EB48006B46818801AA484611F494
:1055D0002BF4C4B23CBBBDF804002988884200D338
:1055E000084686B2022106F108002AF46DD48346EB
:1055F000ABF8046032460BF106000099FDF72FF975
:10560000304800E013E050F829005946603011F4AA
:1056100003F4484611F40AF42888801B288008F116
:1056200001081FFA88F8CDF808A0CDF80CA07888FA
:10563000404503D9288808B1002CC2D044BB484655
:105640000FF4ECD42988401A401E86B200250620AB
:1056500000EB09230F220421484600962CF4E4D7DE
:105660008246AAF80260174850F82900066E0AE040
:105670000AEB0500B288001DB11DFDF7F0F8B088F7
:10568000284485B23668002EF2D1504611F4D0F38A
:105690004CB1062C07D007EB4800397882882346A6
:1056A000484611F4C7F3084B14A24021002000948F
:1056B00007F474D3062C03D0002004B0BDE8F09F9B
:1056C0000120FAE7C40E800088C10001523A333A43
:1056D0005B25735D20656E7465722C206E625F6859
:1056E000616E646C653D307825782C2072655F6C46
:1056F000656E3D307825780A00000000523A333A52
:105700005B25735D20657869742C207374617475F2
:10571000733D307825780A0070B504460D46204662
:1057200004F07AFF002805D129462046BDE87040E4
:1057300063F4409470BD70B504460D46204604F0F5
:105740006BFF002804D12946204664F4DFD480B2E0
:1057500070BD70B504460D46204604F05DFF00287C
:1057600005D129462046BDE8704064F4159670BD09
:1057700070B504460D46204604F04EFF002804D1C3
:105780002946204665F4F4D080B270BD10B58EB0C5
:1057900008A804F0D1FF099806F064F904AB0B9A4D
:1057A00007C32FA1E922CDE900219DF82000029036
:1057B000354B36A23BA10220FFF704F90CA860F498
:1057C000F7D3044654B114222F49183103A8FDF72A
:1057D0008BF8ADF8104003A8FEF7D4FE9DF83220F8
:1057E0009DF833309DF830009DF83110CDE906105A
:1057F000CDE904329DF834009DF835102BA2ED233D
:10580000CDE90032CDE902101F4B20A225A10220D4
:10581000FFF7D8F830A0F421CDE900101A4B1BA2F5
:1058200020A10220FFF7CEF805F06AFA05F0CEFAC3
:1058300004F05AFF00F040FD2F49002060F41ED60E
:105840000446002C0AD014220F492C3103A8FDF77E
:105850004BF8ADF8104003A8FEF794FE0EB010BD53
:10586000476F6F646978204752353531782053444B
:105870004B205625642E25312E32662028636F6D0D
:105880006D69742025642900C4BF00012E2E5C536D
:1058900072635C757365725C757365725F6170705D
:1058A0002E6300004E4F5F54414700004C6F636110
:1058B0006C20426F61726420253032583A253032B4
:1058C000583A253032583A253032583A2530325835
:1058D0003A253032582E0000476F6F6469782055A2
:1058E000415254206578616D706C652073746172EB
:1058F0007465642E000000005042800010B540F432
:10590000404003F07DFC10BD014948607047000035
:10591000A8438000024901480860704711610001F6
:105920000C2280003EB500241D0A0A78122A02D0FB
:10593000132A04D006E000208DF8000002E00120C8
:105940008DF800008888ADF804004888ADF80200A2
:10595000891D029100206AF493D40B48016829B193
:105960008A691AB169462846904708E09DF8000008
:10597000012804D1BDF804102846FFF7CDFE6AF4D3
:10598000B5D420463EBD0000B42280003EB5DDE91E
:105990000654CDE9005468F425D104F0BBF9002089
:1059A000029002A856F458D20299014888603EBD80
:1059B000FD58000102490148086070478D590001F7
:1059C0004823800010B50A4601460A4804F0E8FB67
:1059D00009480188074804F071FB002809D000211C
:1059E000052005F0B9F90021BDE81040084600F097
:1059F00015BF10BD882C81005442800030B50B4D7E
:105A0000EA68B2F1704F10D30020A5F5C87300EB1F
:105A1000800103EB81014C6814B18C68A41A8C607E
:105A2000401C1428F3DB0020E86030BDCC4C800023
:105A300070B504460D46194E0022194B20462946E2
:105A400005F0AAFD06D2306820F4704040F44050C2
:105A5000306070BD0022134B2046294605F0D6FE6B
:105A60000DD2002213462046294605F095FD06D2A8
:105A7000306820F4704040F48040306070BD0022F7
:105A8000094B2046294605F0C1FEF7D2306820F4C4
:105A9000704040F4A040306070BD000024C500A0FC
:105AA000008040C000003EC00000244010B5064CFD
:105AB0002078002805D104F08FFE03F03BFF00F0B2
:105AC000B1F90120207010BD894380002DE9F04F0D
:105AD00087B0DFF8F09100240025A246002676F476
:105AE000E9D279480168C9F800104068C9F8040093
:105AF000764800680830059009F1080006900422F5
:105B000003A9059869F45AD1BDF80C10A1F57F409E
:105B1000FF3843D0082203A9059869F44FD1BDF896
:105B20000E006FF449D68046BDF80C00002869D0FD
:105B30000698A9EB000707F58057BDF80E1008F18D
:105B4000080083460844B84265D805AB082203A97B
:105B500006A869F423D1BDF80E00002300EB08026B
:105B600005A906A873F416D4641CBDF80E005844A9
:105B7000B842C4D10020CDE9006053464A462146D0
:105B8000284676F475D5C0B2002827D18246002673
:105B90000024CDF818906D1CEDB2B0E70020CDE9DF
:105BA000006053464A462146284676F461D5C0B285
:105BB000002813D16D1CECB2444D4FF48057444E75
:105BC00008E0286800EB0430394670F4F3D040B1A7
:105BD000641CE4B2707AA042F3D8002007B0BDE89C
:105BE000F08F3C488169407A4FF4CB72CDE90020B8
:105BF0000291394B39A24FF40041002007F4CED076
:105C00000920EBE7BDF80E00059908F108080844E3
:105C10004044059073E7082F2AD305AB082203A957
:105C200006A869F4BBD0083F2FB100233A4605A966
:105C300006A873F4AFD3611C0020CDE90060534681
:105C40004A46284676F414D5C0B20028C6D182460A
:105C5000BDF80E004044C61B0024CDF818906D1C02
:105C6000EDB20023324605A906A873F493D346E7A4
:105C700005AB3A4603A906A869F490D0611C03A8B5
:105C8000CDE9006053464A46284676F4F1D4C0B2C6
:105C90000028A3D1C7F1080ABDF80E0000EB0806E2
:105CA0000024CDF818906D1CEDB20123524605A9D1
:105CB00006A873F46FD30023324605A906A873F42F
:105CC00069D31CE7982C8100ACD50700CC23800059
:105CD000D8328000641F80004EC00001523A353A2D
:105CE00025732C204C256420666C617368207374C6
:105CF000617465203078253032582C206572726FBF
:105D000072203078253038580D0A0000FEE7000078
:105D1000FEB52A4C206840F040002060206820F446
:105D20008070206025482C30016821F4003101602A
:105D3000224D24352868224980B208432860214832
:105D400003C8CDE900012068C82100F007001DF854
:105D5000000010FB01F2DFF870C0DCF8006046F0D4
:105D60008070CCF800001948076847F00101016015
:105D7000416843685B1A9342FBD30760CCF800602C
:105D80000EF4A9F702909DF8080028B19DF80800CC
:105D90000F498860C8600861286820F07F4028604B
:105DA000206840F040002060206840F4807020604F
:105DB000206820F040002060FEBD000004C500A067
:105DC00000008F11684E8100FCED00E0001000E043
:105DD0006042800070B504460D460F4E00220F4B06
:105DE0002046294605F012FD08D2D6F8200220F4FC
:105DF000706040F44070C6F8200270BD0022084B6D
:105E00002046294605F0C8FBF7D2D6F8200220F438
:105E10007060C6F8200270BD00E000A0000049409C
:105E20000000444010B5064A2521082069F49CD69C
:105E30000121BDE81040034A002069F49596000056
:105E40000D9A0001D565000130B400210D4B01EB26
:105E5000410203EB42121478012C0DD1127904781F
:105E6000A24209D101EB410003EB4010C16D0029B2
:105E700006D030BC00200847491CC9B20829E6D327
:105E800030BC7047FC43800070B500240C4E04EB1E
:105E9000440006EB4015287801280AD1281D12F489
:105EA000DDD218B1012801D0002070BD281D12F4E8
:105EB0002FD5641CE4B2082CE9D3012070BD00008A
:105EC000FC4380007047000030B400210D4B01EB13
:105ED000410203EB42121478012C0DD1127904789F
:105EE000A24209D101EB410003EB4010C16D002932
:105EF00006D030BC01200847491CC9B20829E6D3A6
:105F000030BC7047FC43800010B5884210D8082987
:105F10000ED2094B074A5A6006E003EB80029468F0
:105F200044F001049460401C8842F6DD03201860B0
:105F300010BD000000400030002000E070B50546B4
:105F40001446114840F8345000EBC4004160284624
:105F500000F08EFB0646FF2000F09DFB014625F079
:105F600001000A4B850703EB8402094B06D0801E13
:105F7000906006EB014043F8240002E0906043F893
:105F80002410204670BD0000643D8000002000E029
:105F9000004000302DE9F041ADF50E7D0C461E0AA3
:105FA000304662F417D70746304662F413D700280C
:105FB00032D042A10091334642A21021002006F4C3
:105FC000EDD6FF2E75D04C4D2088288060886880E3
:105FD000A088A880E088E880207A2872607A6872B9
:105FE0002F74D4F80A00C5F80A00E089E881434A12
:105FF000002102EBC60001604160218822F83610C2
:106000004FF4CA7129A8FCF7C3FC29A85FF40AD48D
:10601000687A012810D101E039A1CBE7E87B0121A2
:10602000B1EB901F08D1384890F81C01400703D508
:106030009DF8A40004281AD204F10A02617A1546D8
:10604000304674F4B9D1617A2A4630466EF43FD6B0
:1060500000206AF415D12D48016829B18B6B1BB162
:10606000254A0021304698476AF440D121E0A0211A
:1060700001A8FCF78DFC9DF8A400C01EC5B2002449
:1060800029AF0DF104080BE004EB840007EBC0011D
:10609000093108EB04101022FCF7E1FB641CE4B2A8
:1060A000AC42F1D314492B4601AA0A3130466DF4B3
:1060B00029D00DF50E7D0020BDE8F081534C4156EE
:1060C00045000000523A313A636F6E6E6563746941
:1060D0006F6E5F7265715F696E645F68616E646C3C
:1060E00065723A20636F6E6964782025642C207293
:1060F0006F6C652025730A00182780002A2780000E
:106100004D415354455200007C2780009821800067
:1061100030B58FB006200E90002507953A4C03202D
:1061200020700F20607084F82F5084F82E504FF4A8
:106130000070E08420850A2084F82A001B206084F7
:106140004FF4A470A0840CAA0EA9012066F462D0BA
:1061500038B108A875F48AD518B907A875F46CD7B2
:10616000D0B1A5764FF461706080208C40F0800043
:10617000208405A84EF4DED0059806990844FCF763
:1061800005FB019502950395049508A875F46ED555
:106190001D4C0A3438B333E00120A0769DF820006E
:1061A000412813D09DF82A0020719DF82D006071C0
:1061B0009DF82E00A0719DF82F00E071BDF81C0025
:1061C0002072C02141EA10206072CBE79DF82800C0
:1061D00020719DF8290060719DF82A00A0719DF83A
:1061E0002B00E071EAE7102201A908A8FCF7ECFAFD
:1061F00030B1102208A92046FCF731FB0FB030BDAA
:10620000204674F425D0F9E77E28800070B50D464D
:10621000EFF311801D490A781D490968C1F3022175
:10622000491C01248C401119C9B281F311881C0A40
:106230001849002301EBC402136053604FF6FF724C
:1062400021F83420C0B280F31188AB7812A210215B
:10625000002006F4A3D5204674F446D120466EF4FF
:10626000BBD5204674F448D000206AF409D0114808
:1062700002683AB1D36B2BB1A8789030C2B200213A
:10628000204698476AF432D0002070BD02E400E056
:106290000CED00E02A278000523A313A64697363BA
:1062A0006F6E6E20726561736F6E203D20307825B1
:1062B000780A00009821800030B585B00B223CA1FF
:1062C000002060F4ADD63D484FF4C8718181202193
:1062D000418100250570072181730121417085707E
:1062E0000246002108465FF4A3D704464CB11422AD
:1062F00033496846FCF7F8FAADF804406846FEF703
:1063000041F92F4A00211823283A08465FF408D79C
:10631000044654B114222A4914316846FCF7E4FAC1
:10632000ADF804406846FEF72DF9254A0D23103AD2
:10633000012100205FF4F4D6044654B11422204910
:1063400028316846FCF7D0FAADF804406846FEF7FD
:1063500019F91C4805808570F7210A22084661F466
:1063600093D1044654B1142215493C316846FCF7D8
:10637000BBFAADF804406846FEF704F940F6480160
:10638000FB2060F413D5044654B114220C4950315B
:106390006846FCF7A9FAADF804406846FEF7F2F843
:1063A00005B00021BDE83040084661F403970000C5
:1063B000476F6F6469785F55415254007C028100D9
:1063C00038BF0001504280002DE9F04104461846D4
:1063D000002600230025A4F58854043C02D10B4B71
:1063E0000925087800240CE033F83470874207D17F
:1063F00003EBC4035C6834B10346A047064602E0E1
:10640000641CAC42F0D33046BDE8F0817444810096
:1064100010B5362200210A4B05E033F831408442A2
:1064200003D0491CC9B29142F7D3914207D2A0F5DB
:106430008850043803D103EBC1010248486010BD05
:10644000BC448100C963000110B500F059FC002074
:106450000B490C4C31F8302024F8302001EBC002FD
:1064600004EBC00352685A60401CC0B23628F1D316
:1064700041F20410FFF7CCFF0348046010BD000098
:10648000F0DC0500BC448100C002800010B51C2275
:1064900000210A4B05E033F83140844203D0491C07
:1064A000C9B29142F7D3914207D2A0F520601338C8
:1064B00003D103EBC1010248486010BD14418100C3
:1064C0003576000110B5FFF737F8074C07496089AA
:1064D000C2000748FCF708FA40F61320FFF7D6FF82
:1064E0000348206010BD0000D802800024E40500AD
:1064F000144181002DE9F04389B081460E46002405
:106500002546202101A8FCF743FA0027102201A903
:106510004846FDF771FD002001A900F1080231F89D
:1065200012203A4497B2401CC0B20828F5D34FEA73
:10653000D708B9F1050F03D0B9F1060F20D03AE022
:10654000708805F016F804460D46308805F011F8FD
:1065500006460F46404605F00CF832463B4605F02D
:1065600097F922462B4604F04FFE154A154B04F0CE
:106570004BFE0022144B05F07FF904460D461AE04D
:10658000708804F0F6FF04460D46B08804F0F1FF71
:1065900006460F46404604F0ECFF32463B4605F007
:1065A00077F922462B4604F02FFE084A084B05F0E7
:1065B0002FF804460D4609B020462946BDE8F08371
:1065C00079E9263108AC5CBF00003940B76DDBB615
:1065D0006DDB0EC01CB542680121117000214FF423
:1065E0008A2205E012F8013B4468491C6354C9B291
:1065F0000829F7D3094906C9CDE900124168009A74
:1066000041F8092F019A4A6002884068112169F413
:106610006DD20349002008701CBD000094C0000129
:106620004825800070B5FF234FF0FF3400200F4D48
:1066300005F5C871CE6800EB800105EB81014A6861
:106640003AB14A782AB989688A1BA24201D2144613
:106650000346401C1428EEDBFF2B04D003EB830021
:1066600005EB800070BD002070BD00003C4B800039
:106670000088704708B5684675F4E6D228B99DF8D9
:106680000000022803D0012803D0002008BD02200A
:1066900008BD012008BD40F45F407047FEB50546C7
:1066A0000F461446204603F0A7F900282CD0184EB8
:1066B000184B0922B188384603F084F901468DF859
:1066C000015000208DF80000304600EB4500032902
:1066D00002D008290FD108E0012C04D004218DF844
:1066E0000010C48007E00321F9E7012C0DD006213A
:1066F0008DF8001044839DF80000002804D0316814
:10670000002901D068468847FEBD0521F0E700005A
:10671000A052800088BD000100B591B015A090E89E
:106720000E00C068CDE90E230D91109000200C9052
:106730002C2101A8FCF72CF90CA801900DA80290BF
:106740001048039009208DF8100040208DF82E008D
:1067500001208DF82F000B48801C059001A863F4E0
:10676000F9D6002803D10199074A0988918011B010
:1067700000BD00001BD790ECE8B975800A4644D3F1
:106780000102EDA688BD0001A05280000EB5084BA5
:106790001B68002B0BD08DF80100002907D1107861
:1067A000002804D102208DF80000684698470EBDED
:1067B000A05280003EB505460C881648164B0922AB
:1067C0008188204603F0FEF8ADF8004000228DF8E5
:1067D00004201049022301EB450103280BD00828AF
:1067E00010D0ADF8022001208DF80400694628463B
:1067F000FEF7AFFF3EBDADF80230891D02918DF866
:106800000420F3E7ADF802301A3102918DF804202C
:10681000ECE70000A052800088BD000113B584B0F1
:10682000044600200C4901EB4402528B012A11D18D
:106830008DF804008988094A072003F0A8F8ADF80C
:1068400006000120ADF8080005A8039001A9204624
:10685000FEF771FF06B010BDA052800088BD000198
:10686000002805D0034900680860034867F47C9657
:1068700002207047A052800050BE000110B5017880
:10688000092938D2DFE801F0371117050B1F252B36
:1068900031000121BDE81040084604F05DBA002136
:1068A000BDE81040012004F057BA01894068BDE8F6
:1068B0001040FFF787B80121002004F04DFABDE831
:1068C000104004F0CDB90121BDE81040032004F0D0
:1068D00043BA0021BDE81040032004F03DBA002176
:1068E000BDE81040042004F037BA0121BDE8104093
:1068F000042004F031BA10BDFEB504460D4616461C
:106900001A200C4901EB4402D288012A10D1002040
:106910008DF800008988084A022003F038F8ADF8A5
:106920000200ADF80460029569462046FEF703FFB9
:10693000FEBD0000A052800088BD00012DE9FF418E
:1069400006460C4625782C4F2C4B0922B988284640
:1069500003F038F88DF80560ADF8005000218DF88F
:106960000210394601EB4605032821D001210528F4
:1069700016D0072834D0082826D08DF802109DF8AC
:106980000200012806D09DF8040018B1396809B149
:1069900001A8884769463046FEF7EAFEBDE8FF8158
:1069A0008DF80410A01D0290A088ADF80C00E6E759
:1069B000A01D00F059FF012804D004218DF8041017
:1069C000E880DCE70321F9E7A01D00F04DFF012876
:1069D00004D006218DF804106883D0E70521F9E77B
:1069E000A07928B10128CAD108208DF80400C6E793
:1069F00007208DF80400C2E7A052800088BD000186
:106A0000FEB5064601248DF80040019672F470D060
:106A1000012804D08DF808400024104D14E0002017
:106A20008DF80800F8E705EB04110879012809D171
:106A30008868304206D00A6922B19DF8080038B152
:106A400068469047641CE4B22878A042EBD8FEBDAB
:106A5000887B0228F6D168469047F3E7FC46800021
:106A600010B50446034811F411D02046BDE810408B
:106A700000F002B85C40800000B585B0016800916C
:106A8000017901F00301019181680291C1680391CC
:106A9000406800090490684600F0ECFE05B000BDB7
:106AA00010B5FF20FDF766FB80B200281AD00E4912
:106AB00088630E496FEA00420A606FF004020A60C0
:106AC0000A4940390968C1F3001139B1202805D0BD
:106AD000BDE8104020F0200010F45097BDE81040B1
:106AE00010F44C9710BD0000002001A044C500A088
:106AF00030B58DB00446002C04D094F82900002550
:106B000018B111E001200DB030BD84F828501948AB
:106B1000416821F080014160016821F0800101603D
:106B2000816821F004018160022084F8290001A815
:106B30002EF48AD160680A90A0680B9020690590B5
:106B400060690690A0690790E0690890E06803908A
:106B5000206A0490606A0C90217801AA064800F02F
:106B60008DFF2564012084F8290084F82850002036
:106B7000C9E70000A0E200A0003001A0FEB50D466C
:106B80000F4A904200D10D0400208DF800000195BD
:106B900001208DF8080000240A4E0CE006EB0410DA
:106BA000017931B98168A94203D102690AB1684605
:106BB0009047641CE4B23078A042EFD8FEBD0000DC
:106BC000001001A0FC46800070B504460D46044844
:106BD00012F486D729462046BDE8704012F4759716
:106BE0005840800010B5034818F49AD6BDE810400C
:106BF00015F43E92504080007047704770B50446CF
:106C00000D46044817F4BCD129462046BDE8704023
:106C100017F47691196C00012DE9F041EFF311861C
:106C20000220FDF7BCF90446FDF7D6F9401C01210E
:106C300081406018C0B280F311881A4D6C68D5E9A4
:106C400002100144E960A078002710B1012802D0A9
:106C500004E0676002E060680144A160FEF7CEFED8
:106C6000FFF7E0FC686050B18068E968401AA860EE
:106C700075F4F2D101460120FFF7C0FF03E02F7049
:106C8000012071F4FBD7F0B280F31188002C07D0FB
:106C90006078002804D1D4E90301BDE8F041084739
:106CA000BDE8F081CC4C800070470421FEF73CB970
:106CB0000321FEF739B9000010B5044603481AF461
:106CC00027D62046BDE810401AF4D6933040800005
:106CD0000021FEF729B9000010B5044603481AF454
:106CE00017D62046BDE810401AF4B4943040800016
:106CF000704770470221FEF717B90121FEF714B95A
:106D000010B5482204490548FBF7EEFDBDE81040E8
:106D1000052000F085B8000070DC05007444810097
:106D20002DE9F04104460E460C2502F0DDF9B0B322
:106D30002178012903D9FF2901D0122538E0601CF0
:106D40004AF460D705461E4F142D09D205EB850085
:106D500007EB400090F82903800706D5122527E0AD
:106D60004AF43ED70546142D1AD005EB850007EBF3
:106D7000400000F54870D4F801100160B4F8051027
:106D8000818021780172417A41F0010141F00201D4
:106D900041722178601C4BF4C5D018B107E007E0C0
:106DA000072505E02278611C284648F4F3D4002525
:106DB000294630464AF4F8D60020BDE8F0810000AC
:106DC000A414800070B50E460C2402F08DF9F8B1C1
:106DD0000024124D04EB840005EB400191F82903D7
:106DE000C20710D020F0020081F82903420703D423
:106DF00020F0010081F8290391F8282301F548715A
:106E0000204648F415D5641CE4B2142CE2D30024C7
:106E1000214630464AF4C8D6002070BDA414800034
:106E200010B509220021094B05E033F831408442B6
:106E300003D0491CC9B29142F7D3914205D205282B
:106E400003D103EBC1010248486010BD74448100C6
:106E5000D97100012DE9F34FA9B004464FF00009A4
:106E60000C2700260096602101A8FBF791FDDFF8B2
:106E70000C8398F8A90401281CD0022088F8A904E2
:106E800000969DF8000008EB801191F84410052948
:106E900004D0401CC0B200900C28F2D39DF8000032
:106EA0000C2807D3207830B9A178E01C4BF43AD0F5
:106EB00008B10B2759E11227617A11F0050FF9D0BB
:106EC000AF4801F00F02825C00EB11100078104413
:106ED000C5B2002010E08A0703D501F0010282420A
:106EE00009D004EB001293895289934206D8042BEF
:106EF00004D3042A02D3401CA842ECDBA842D9DB0D
:106F0000002127E004EB0110B0F80EC0028A94457E
:106F100022D8C38AB0F818A053451DD8DFF864A260
:106F2000838ABAF800A0534516D8BCF1060F13D3D4
:106F3000DFF854C2BCF800C062450DD80A2B0BD351
:106F4000408AB0F5FA7F07D2401C5043B0EB830F64
:106F500002DA491CA942D5DBA942ABDBA0780128A3
:106F6000A8D860780328A5D88DF87800207850B983
:106F7000A178E01C34F437D028B99DF8780020F0CF
:106F800002008DF878006078C00705D07F498048FE
:106F90000FF452F700288DD168464AF4E5D207462F
:106FA000380087D1824601AF25E004EB0A11CA8977
:106FB000C88A5200904200D3104680B202220228B2
:106FC00000D8104682B2088A0B8B4FEA400C60460C
:106FD00007EB4A10C0F804C0C9894900016082600B
:106FE000C2608674C6749DF8001001824EF49ED46F
:106FF00018B90AF1010AAA45D7DBAA4501DA3B27ED
:10700000B3E09DF8000008EB8010806820B1E12219
:1070100060A164A00FF412F7607860B3012836D045
:10702000022828D0032832D0F6235AA200210FF4D8
:1070300007F79DF800E008EB8E1BCBF808404FF0F7
:10704000010905208BF84400D4F80300CDF86A004C
:10705000B4F80700ADF86E004848D0F819131C9139
:1070600090F81D038DF87400607A8DF8760000208A
:107070000DF1640A30E09DF80000404908EB8010F3
:10708000D1F80823C260B1F80C130182D1E79DF852
:1070900000003A4908EB8010D1F80E23C260B1F825
:1070A00012130182C5E704EB001200EB40010AEB6A
:1070B000810153890B8393894B8307EB4013D3F8EA
:1070C00014C04FEA5C0CA1F81CC01B8BCB83538A05
:1070D0000B84928A4A84401CA842E4DB9DF8761017
:1070E0000520884313D16D1E05EB45000AEB800196
:1070F0001831BDF87E004A881044BDF87C208242D9
:1071000001D2ADF87C000A88824200D208808DF856
:1071100077E0A0788DF8790020788DF87A00DBF898
:107120000C001990BBF81000ADF8680001208DF834
:10713000750098F812048DF8A000264919A809686E
:1071400088470746380010D003279DF8000008EB59
:10715000801080F84460806838B10C3829F462D01F
:107160009DF8000008EB8010866039462A984AF4A2
:1071700029D52BB04846BDE8F08F0000A41480004C
:10718000B4D005008206800080068000D4D00500BF
:10719000B21780006C6C6D5F6863695F70617463C7
:1071A000682E63006C6C6D5F656E762E6163745F34
:1071B000696E666F5B6163745F69645D2E686F738F
:1071C000745F706172616D73203D3D204E554C4C73
:1071D0000000000048068000F8B50D461646688895
:1071E00008F462D00446FF2C4DD00121204608F45B
:1071F000CFD10A2813D0082040EA04211E233246AA
:1072000040F6166028F4CCD70B210170A989418281
:1072100069684161A968816129F40ED033E00020DA
:107220000090204653F468D41849682290B151F870
:10723000240090F84030302B01D0009216E031222B
:1072400080F8402051F8240001210269204653F4BF
:10725000B5D40BE051F8240090F84000412801D04B
:10726000009203E00121204651F41ED29DF8000057
:1072700048B100221146204653F4A0D46A460321A7
:10728000204653F4D9D40020F8BD0000CC0D800076
:1072900070B504460E460C2501F026FF28B3217870
:1072A000012903D9FF2901D012251EE0601C4AF4F0
:1072B000A9D4142808D2104900EB800201EB420245
:1072C00092F829138B0701D412250EE021F0020158
:1072D00082F829134B0703D421F0010182F8291306
:1072E0002278611C48F4A4D20025294630464AF48D
:1072F0005BD4002070BD0000A41480002DE9F84F7D
:10730000044688460C2500270C200090804E96F8F5
:10731000A90401281CD0022086F8A90400200090AE
:107320009DF8001006EB811090F84400062808D064
:10733000072806D0082804D0491CC8B200900C28A1
:10734000EED320784FF0060B28B101282BD0122560
:10735000002F74D0D4E09DF800000C28F8D206EB82
:10736000801090F844000828F2D0062810D046F487
:107370009FD3054628000DD09DF8000006EB801035
:1073800080F844B00021032029F482D20025DFE7F1
:107390000025DDE79DF80010082006EB811181F83B
:1073A00044000127D4E7DFF86C91122560780228A9
:1073B000CED805D1A0880028CAD060880028C7D0C0
:1073C000A18819B16088B0EBC11FC1D29DF800003F
:1073D000DFF844A10C2835D206EB801090F8440069
:1073E000082802D0072802D032E00C25B0E799F82F
:1073F0000000800701D44FF0000A5246608845F42F
:10740000AFD096F8A604617820F0010001B1012107
:10741000084386F8A60420F00201607802280FD005
:10742000002041EA400086F8A6049DF8000061882B
:1074300006EB80100186A1884186002588E75BE085
:107440000120EEE768464AF48FD0054628009ED119
:107450009DF8000006EB801080F844B099F8000019
:10746000C00705D02D4950460FF4E6F400288ED110
:1074700099F80000032808D144F442D228B12749E2
:1074800050460FF4D9F400288CD199F80100012856
:1074900001D0032803D14AF4D9D50028A6D196F803
:1074A000A604617820F0010001B10121084386F8AB
:1074B000A60420F00201607802281BD0002041EAD7
:1074C000400086F8A6049DF80010628806EB811043
:1074D0000286A2884286012086F8A70408464AF45C
:1074E00081D79DF80010072006EB811181F8440038
:1074F00000252DE70120E2E7294640464AF454D30F
:107500009DF8001008464BF435D00020BDE8F88FF8
:10751000A414800092068000B2178000D4D0050029
:107520002DE9F84304460F4600260C21354D95F809
:10753000A90401285FD0022085F8A904002000904A
:107540009DF8002005EB821090F84400062808D032
:10755000072806D0082804D0521CD0B200900C286E
:10756000EED39DF800000C2806D205EB801090F8B1
:10757000440006283FD105E0684649F4F5D70146A6
:10758000080038D11221A078012804D0042802D0A4
:10759000052803D02FE04FF0010801E04FF002086A
:1075A000002211E002EB420004EB4003B3F808C0F4
:1075B000D88884450AD81B79012B07D8BCF1040F61
:1075C00004D3042802D3521C4245EBDB424512DBB4
:1075D000207803280FD8607803280CD81022214681
:1075E0000948FBF73CF99DF80010062005EB8111D6
:1075F00081F84400002138464AF4D6D23046BDE82E
:10760000F8830000A41480009206800070B50E4636
:107610001546074C324621466EF42ED43246294692
:107620002046FBF7D1F808B1002070BD012070BDE5
:10763000982C8100F8B50C461646304628F49AD6A8
:1076400007460025204B21A24021002005F4A6D3A7
:10765000202F35D0360A0096237A20A24021002020
:1076600005F49CD3207820B1342812D03F2810D0C4
:1076700026E021463046FDF7EDFE0546FF2D04D1FC
:10768000214630460FF4DEF30546FF2D18D10025C4
:1076900016E0207A400613D40620002700EB0623CC
:1076A00001220421304600972AF4BED74780217A70
:1076B000417021783F2905D00421017129F4E5D4D6
:1076C0002846F8BD0621F8E774C00001523A333A63
:1076D0005B25735D20656E7465720A00523A333A19
:1076E0006F70636F64653D307825782C20636F6E12
:1076F0006964783D307825780A0000007CB504463E
:107700000D46002000900190684674F4C5D300280F
:107710000FD19DF800000E4E00280AD10D4A0E4BE5
:107720002046294603F038FF04D2306840F08060DC
:1077300030607CBD4FF03332084B2046294604F0C0
:1077400065F8F6D2306820F0806030607CBD0000C3
:1077500020C500A09A9999999999FD3F3333FF3F2D
:107760002DE9FC5F04460D4600200090019068461C
:1077700074F492D3002869D19DF8010000F07F08CD
:107780009DF8040000F01F099DF8020000F01F0B97
:10779000022704264FF0010A00222D4B20462946DD
:1077A00004F034F809D808F10A082A48016821F0E1
:1077B000FE4141EA086101600DE00022264B2046AF
:1077C000294603F0E9FE06D82248016821F0FE416F
:1077D00041EA086101600022204B2046294604F05E
:1077E00015F802D20427062612E000221C4B204680
:1077F000294604F00BF802D20327052608E00022F0
:10780000184B2046294603F0C7FE01D34FF0000A6B
:10781000BAF1000F1AD00BEB07001F2800D31F206E
:10782000B14502D9A9EB060100E00021094A18324E
:10783000136823F41F0343EA004010600548001D4D
:10784000026822F4780242EAC1410160BDE8FC9F6F
:10785000000049400CC500A00000444000004E401C
:107860000000404000003B400178407841EA0020A1
:10787000704700002DE9F041044620683B4D1FE0B1
:1078800090FAA0F1B1FA81F201219140421E10401C
:10789000E26891FAA1F3B3FA83F39B00072A31D08F
:1078A000334FD7F890C20F269E402CEA060C9A4020
:1078B0004CEA020CC7F890C22A6842EA01412960EA
:1078C0000028DDD12168A0684FF6FF7202EA01228C
:1078D000C9B2B0F5807F1AD00023012819D000204A
:1078E0002E6811438E43184306432E6061680229B7
:1078F00011D0206800F04AF820681E49486260688C
:1079000070B130E02A6822EA01412960D8E71346C5
:10791000E3E70846E4E70021206800F037F8EBE7EA
:1079200020688863206901280CD0022804D003282D
:107930000ED0042817D111E02068486388622068BF
:10794000086210E0206808638862206808620AE024
:1079500020680863C8622068086204E02068486301
:10796000C862206808620120BDE8F08150C500A00F
:1079700000E000A0002001A00349096A884301D06B
:107980000020704701207047002001A0C0B2044BC6
:107990001A688243002900D0002002431A60704711
:1079A0005CC500A00448016821F040410160024824
:1079B00038300068704700005CC500A004490860CA
:1079C00003487838016841F0020101607047000007
:1079D00090C500A003490A6822F4E06202430A60ED
:1079E0007047000018C500A02DE9F04107460E467B
:1079F0001446204850F82700002590F84E00C00794
:107A000001D0242533E00121384632F4ABD108B14E
:107A100024252CE0F08847F6FF71201A80B28842B6
:107A200001D2282523E0012000EB072110230A467C
:107A300040F20D1028F4B4D304460620207103222E
:107A40003946204632F4EAD10B482060D6F80100CE
:107A5000A06070792073F088E081224601213846C9
:107A600032F49AD100220321384632F4CFD228468C
:107A7000BDE8F08138128000556803002DE9F0411F
:107A800005460E461446D5F89803C0F300000127BA
:107A9000002867D03146284600F074F8C0B131465E
:107AA000284600F084F83146284600F061F80028A6
:107AB000F9D006F108008740C5F8A0733146284682
